8=FIX.4.4|9=71|35=A|34=1|49=EXCHANGE1|52=20251229-18:09:01.364|56=BROKER1|98=0|108=30|10=111|8=FIX.4.4|9=68|35=2|34=2|49=EXCHANGE1|52=20251229-18:09:01.364|56=BROKER1|7=1|16=0|10=201|8=FIX.4.4|9=59|35=5|34=3|49=EXCHANGE1|52=20251229-18:09:11.296|56=BROKER1|10=087|8=FIX.4.4|9=71|35=A|34=4|49=EXCHANGE1|52=20251229-18:17:30.222|56=BROKER1|98=0|108=30|10=108|8=FIX.4.4|9=69|35=2|34=5|49=EXCHANGE1|52=20251229-18:17:30.222|56=BROKER1|7=30|16=0|10=249|8=FIX.4.4|9=59|35=5|34=6|49=EXCHANGE1|52=20251229-18:17:40.105|56=BROKER1|10=080|